:100000000C9426010C9443010C9443010C9443017D
:100010000C9443010C9443010C9443010C94FE0690
:100020000C9443010C9443010C9443010C94430140
:100030000C9443010C9443010C9443010C94430130
:100040000C9443010C9443010C9443010C94430120
:100050000C9443018B02A402BD02D602EE02EE0212
:10006000EE02EE02EE02EE02EE02EE02EE02EE0210
:10007000EE02EE02EE02EE02EE02EE02EE02EE0200
:10008000EE02EE02EE02EE02EE02EE02EE02EE02F0
:10009000EE02EE028B02A402BD02D602FB021403A2
:1000A0002D0346035E035E035E035E035E035E0391
:1000B0005E035E035E035E035E035E035E035E0338
:1000C0005E035E035E035E035E035E035E035E0328
:1000D0005E035E035E035E035E035E03FB021403C6
:1000E0002D0346036A0374037E038803910391037F
:1000F0009103910391039103910391039103910360
:10010000910391039103910391039103910391034F
:10011000910391039103910391039103910391033F
:10012000910391036A0374037E0388039E03A7036C
:10013000B003B903C103C103C103C103C103C103B8
:10014000C103C103C103C103C103C103C103C1038F
:10015000C103C103C103C103C103C103C103C1037F
:10016000C103C103C103C103C103C1039E03A703AC
:10017000B003B903CD03D703E103EB03F403F403A6
:10018000F403F403F403F403F403F403F403F403B7
:10019000F403F403F403F403F403F403F403F403A7
:1001A000F403F403F403F403F403F403F403F40397
:1001B000F403F403CD03D703E103EB0300040A04C3
:1001C00014041E04270427042704270427042704F3
:1001D00027042704270427042704270427042704C7
:1001E00027042704270427042704270427042704B7
:1001F00027042704270427042704270400040A04EB
:1002000014041E0433043A04410448044E044E040A
:100210004E044E044E044E044E044E044E044E044E
:100220004E044E044E044E044E044E044E044E043E
:100230004E044E044E044E044E044E044E044E042E
:100240004E044E0433043A044104480411241FBEF2
:10025000CFE5D8E0DEBFCDBF10E0A0E6B0E0ECE334
:10026000FBE102C005900D92AE38B107D9F726E048
:10027000AEE8B0E001C01D92A33DB207E1F70E94D5
:1002800055020C949C0D0C94000061E084E40E94E3
:10029000C20360E084E40E94F50361E084E40E940C
:1002A00093030895EF92FF921F93CF93DF931F92D2
:1002B000CDB7DEB71982E12CF12C61E084E40E9415
:1002C000930340E06E2D84E40E94EF0210E064E0AE
:1002D000610F84E40E945F03811115C02FEF89EF45
:1002E00090E0215080409040E1F700C00000F7010D
:1002F000EE0FFF1FEE0FFF1FE05AFF4FE10FF11D42
:100300008081898303C01F5F143009F72FEFE21A41
:10031000F20A84E0E816F10481F689810F90DF91FA
:10032000CF911F91FF90EF90089541E063E082E448
:100330000E94EF0283E08A95F1F7000040E063E05D
:1003400082E40E94EF020895CF93C82F40E061E05D
:1003500082E40E94EF0240E062E082E40E94EF0249
:100360006C2F81E40E9428040E9495016C2F6295F5
:10037000607F81E40E9428040E94950181EE94E050
:100380000197F1F700C00000CF91089561E081E48A
:100390000E94F50341E061E082E40E947F0241E0B7
:1003A00062E082E40E947F0241E063E082E40E9416
:1003B0007F0285EA9EE00197F1F700C0000083E329
:1003C0000E94A40182E30E94A40188E20E94A40189
:1003D0008CE00E94A40181E00E94A40186E00E94BA
:1003E000A4010895CF93C82F41E061E082E40E9408
:1003F000EF0240E062E082E40E94EF026C2F81E4B1
:100400000E9428040E9495016C2F6295607F81E410
:100410000E9428040E94950181EE94E00197F1F773
:1004200000C00000CF910895811105C080E8860FBB
:100430000E94A401089580EC860F0E94A4010895F3
:10044000CF93DF931F92CDB7DEB719820E9452017E
:10045000898320E04FEF5FEFBE016F5F7F4F809198
:10046000D1069091D2060E9425088AE090E00E9471
:10047000790CECCFCF93DF931F92CDB7DEB74FEF60
:100480005FEFBE016F5F7F4F8091D1069091D206E2
:100490000E94C6088981882391F360E080E00E9471
:1004A000140289810E94F201EACF0E94C6010E94D3
:1004B000450140E061E085E00E9402089093D20689
:1004C0008093D106892BD1F0E12CF12C01E020E0C2
:1004D00030E04CE251E062E770E080E292E00E949E
:1004E000F70902E020E030E04CE251E06EE770E016
:1004F0008AE392E00E94F7090E94070BFFCF90E089
:10050000FC01E154F109E432F10508F067C0E65D51
:10051000FF4F0C948D0D413059F42AB381E090E0E7
:1005200002C0880F991F6A95E2F7822B8ABB089553
:100530002AB381E090E002C0880F991F6A95E2F724
:10054000809582238ABB0895413059F427B381E016
:1005500090E002C0880F991F6A95E2F7822B87BB53
:10056000089527B381E090E002C0880F991F6A9533
:10057000E2F78095822387BB0895413059F424B374
:1005800081E090E002C0880F991F6A95E2F7822B04
:1005900084BB089524B381E090E002C0880F991FC6
:1005A0006A95E2F78095822384BB0895413059F41F
:1005B00021B381E090E002C0880F991F6A95E2F7AD
:1005C000822B81BB089521B381E090E002C0880FA7
:1005D000991F6A95E2F78095822381BB089590E088
:1005E000FC01E154F109E432F10508F067C0E25B77
:1005F000FF4F0C948D0D413059F42BB381E090E006
:1006000002C0880F991F6A95E2F7822B8BBB089571
:100610002BB381E090E002C0880F991F6A95E2F742
:10062000809582238BBB0895413059F428B381E033
:1006300090E002C0880F991F6A95E2F7822B88BB71
:10064000089528B381E090E002C0880F991F6A9551
:10065000E2F78095822388BB0895413059F425B391
:1006600081E090E002C0880F991F6A95E2F7822B23
:1006700085BB089525B381E090E002C0880F991FE3
:100680006A95E2F78095822385BB0895413059F43D
:1006900022B381E090E002C0880F991F6A95E2F7CB
:1006A000822B82BB089522B381E090E002C0880FC4
:1006B000991F6A95E2F78095822382BB089590E0A6
:1006C000FC01E154F109E432F10558F5EE58FF4F11
:1006D0000C948D0D29B381E090E002C0880F991F22
:1006E0006A95E2F728231DC026B381E090E002C09E
:1006F000880F991F6A95E2F7282313C023B381E07E
:1007000090E002C0880F991F6A95E2F7282309C07C
:1007100020B381E090E002C0880F991F6A95E2F74C
:100720002823822F089590E0FC01E154F109E4327E
:10073000F10538F5EA56FF4F0C948D0D613021F428
:100740008BB38FEF8BBB08958BB31BBA08956130C9
:1007500021F488B38FEF88BB089588B318BA089541
:10076000613021F485B38FEF85BB089585B315BA49
:100770000895613021F482B38FEF82BB089582B374
:1007800012BA089590E0FC01E154F109E432F10558
:1007900058F5E654FF4F0C948D0D613021F48AB367
:1007A0008F608ABB08958AB3807F8ABB08956130C9
:1007B00021F487B38F6087BB089587B3807F87BBA1
:1007C0000895613021F484B38F6084BB089584B3AD
:1007D000807F84BB0895613021F481B38F6081BB39
:1007E000089581B3807F81BB089590E0FC01E154BE
:1007F000F109E432F10558F5E252FF4F0C948D0DEA
:10080000613021F48AB3806F8ABB08958AB38F70F8
:100810008ABB0895613021F487B3806F87BB089548
:1008200087B38F7087BB0895613021F484B3806FE4
:1008300084BB089584B38F7084BB0895613021F424
:1008400081B3806F81BB089581B38F7081BB0895A0
:1008500090E0FC01E154F109E432F105F8F4EE5FB7
:10086000FE4F0C948D0D8BB38F708BBB607F682B0C
:100870006BBB089588B38F7088BB607F682B68BBA3
:10088000089585B38F7085BB607F682B65BB089525
:1008900082B38F7082BB607F682B6BBB08950F9310
:1008A0001F93CF93DF93EC010E94310B80918E0058
:1008B00081111DC0E3E9F0E088E990E09183808335
:1008C00013821282EFE8F0E08BED95E09383828350
:1008D00011821082A7E9B0E014969C938E9313972F
:1008E0001296FC93EE93119781E080938E002097EF
:1008F00009F45FC09E012C5F3F4F2396CA3DD5404F
:1009000008F05AC0E0919300F0919400A3E9B0E0A0
:1009100002C0DF01FC01828193818217930720F4DA
:10092000808191810097A9F7C0E0EF38FC0709F4B6
:1009300046C0CD91DC9111978E010C5F1F4F8081D5
:1009400091818D939C9382819381821B930B89303B
:10095000910510F1BF01620F731FDB0113969C9389
:100960008E9312973383228312964D915C91139745
:1009700083E990E001C0CD01EC01A881B981129614
:100980002D913C91139724173507A8F3EB01B983F8
:10099000A883DC016D937C9380917000909171002D
:1009A00022813381821B930B90937100809370009E
:1009B00008C000E010E005C000E010E002C000E068
:1009C00010E00E94F60BC801DF91CF911F910F91AB
:1009D00008950F931F93CF93DF93009741F1EC019C
:1009E0008C01045011090E94310BF801428153819E
:1009F000A3E9B0E001C0DF01ED91FC9111972281E4
:100A0000338124173507B8F32497F983E8830D93CE
:100A10001C9320917000309171008A819B81820F1C
:100A2000931F90937100809370000E94F60BDF91EA
:100A3000CF911F910F910895FC01039692838183BA
:100A40002FEF3FEF348323839683858390878783BB
:100A500010820895FC01118610860895CF93DF93CC
:100A60009C01FB01DC011196CD91DC911297D3839F
:100A7000C2838C819D81958384838C819D81DC01DF
:100A800013967C936E9312977D836C8331872087B6
:100A9000F90180818F5F8083DF91CF910895CF939B
:100AA000DF93EB01488159814F3F2FEF520721F42B
:100AB000FC01A781B0850DC0DC01139601C0DF01E8
:100AC0001296ED91FC9113972081318142175307C3
:100AD000B0F71296ED91FC911397FB83EA83D583CF
:100AE000C483BD83AC831396DC93CE93129799870E
:100AF0008887FC0120812F5F2083DF91CF910895AB
:100B0000CF93DF93FC01A085B185C281D38184811D
:100B100095819D838C83C481D581828193819B83C0
:100B20008A8311968D919C911297E817F90731F4F9
:100B30008481958112969C938E93119711861086CD
:100B40008C9181508C938C91DF91CF91089531E1FC
:100B5000FC013083319722E220833197A3E3A08305
:100B6000319760833197708331971082319760E8B5
:100B7000608331971082319762E06083319763E040
:100B80006083319764E06083319765E060833197DB
:100B900066E06083319767E06083319768E0608347
:100BA000319769E06083319760E1608331973083EA
:100BB000319732E13083319733E13083319734E13B
:100BC0003083319735E13083319736E13083319787
:100BD00037E13083319738E13083319739E1308321
:100BE000319730E23083319731E23083319720837F
:100BF000319723E220833197408331975083319797
:100C000026E22083319727E22083319728E2208350
:100C1000319729E22083319720E32083319721E324
:100C200020838697089589E08BBD83EC8ABD8BE095
:100C30008EBD89B7806189BFA091CF06B091D006E3
:100C4000CD91CDBFDD91DEBFFF91EF91DF91CF91CF
:100C5000BF91AF919F918F917F916F915F914F91D4
:100C60003F912F911F910F91FF90EF90DF90CF90C8
:100C7000BF90AF909F908F907F906F905F904F90BC
:100C80003F902F901F900F900FBE0F90089581E01E
:100C900008950F920FB6F8940F921F9211242F927D
:100CA0003F924F925F926F927F928F929F92AF92FC
:100CB000BF92CF92DF92EF92FF920F931F932F93E9
:100CC0003F934F935F936F937F938F939F93AF93D4
:100CD000BF93CF93DF93EF93FF93A091CF06B09193
:100CE000D0060DB60D920EB60D920E948D0CA091FD
:100CF000CF06B091D006CD91CDBFDD91DEBFFF9183
:100D0000EF91DF91CF91BF91AF919F918F917F91A3
:100D10006F915F914F913F912F911F910F91FF9094
:100D2000EF90DF90CF90BF90AF909F908F907F908B
:100D30006F905F904F903F902F901F900F900FBE3D
:100D40000F9008950F920FB6F8940F921F921124EE
:100D50002F923F924F925F926F927F928F929F92CB
:100D6000AF92BF92CF92DF92EF92FF920F931F93B9
:100D70002F933F934F935F936F937F938F939F93A3
:100D8000AF93BF93CF93DF93EF93FF93A091CF06E1
:100D9000B091D0060DB60D920EB60D920E94370B93
:100DA00081110E948D0CA091CF06B091D006CD91FB
:100DB000CDBFDD91DEBFFF91EF91DF91CF91BF916C
:100DC000AF919F918F917F916F915F914F913F91E3
:100DD0002F911F910F91FF90EF90DF90CF90BF90D8
:100DE000AF909F908F907F906F905F904F903F90CB
:100DF0002F901F900F900FBE0F9008950E94A20693
:100E000018950FB6F8940F92FC01928D0F900FBEBB
:100E100081E0911180E008950F931F93CF93DF93AA
:100E2000EC01042F1A8D4C8D4423B9F1011116C029
:100E300050E08A819B810E94930D2C8D8A819B8139
:100E4000820F911D9B838A832C813D81821793079A
:100E500020F1888199819B838A831FC050E08E8115
:100E60009F810E94930D8C8D90E0919581959109C1
:100E70002E813F81280F391F3F832E83488159815E
:100E80002417350730F42C813D81820F931F9F83F7
:100E90008E83023011F4111111501F5F1A8F80E000
:100EA000DF91CF911F910F910895FC01448D442350
:100EB000A9F050E026813781240F351F3783268320
:100EC000848195812817390720F08081918197834B
:100ED0008683CB01668177810E94930D0895EF92FE
:100EE000FF920F931F93CF938C010FB6F8940F923C
:100EF000FC01C68D1C16ACF48189811106C011C09D
:100F0000F8018189811105C00CC07801F1E1EF0E73
:100F1000F11CC7010E94050D81110E94890DC1506D
:100F200079F78FEFF801868F0F900FBE0FB6F89408
:100F30000F92C58D1C16ACF48085811106C011C0BE
:100F4000F8018085811105C00CC07801F8E0EF0E32
:100F5000F11CC7010E94050D81110E94890DC1502D
:100F600079F78FEFF801858F0F900FBECF911F910A
:100F70000F91FF90EF900895CF93DF93EC010FB6A0
:100F8000F8940F92E881F9818B8D2C8D90E030E000
:100F9000829FA001839F500D929F500D11244E0FF0
:100FA0005F1F5D834C831A8EFB83EA830197829FC8
:100FB000A001839F500D929F500D1124CF01840FEB
:100FC000951F9F838E838FEF8D8F8E8F61110CC045
:100FD0008885882389F0CE0108960E94050D882314
:100FE00059F00E94490608C0CE0108960E941C05CF
:100FF000CE0141960E941C050F900FBE81E0DF914B
:10100000CF9108950F931F93CF93DF93082F162F3F
:10101000869FC00111244F960E944F04EC01009757
:1010200071F0111103C09983888303C04F9699838F
:1010300088830B8F1C8F61E0CE010E94BC07CE011C
:10104000DF91CF911F910F9108959F92AF92BF9220
:10105000CF92DF92EF92FF920F931F93CF93DF9384
:1010600000D000D01F92CDB7DEB78C016B015D833D
:101070004C83A22EB12C992493947C0188E0E80E35
:10108000F11C0FB6F8940F92F801928D838D98178A
:1010900018F0F2E0AF1219C04A2DB601C8010E9443
:1010A0000C07F8019189992349F0C80141960E94E3
:1010B000050D882331F00E94490603C081110E946A
:1010C00049060F900FBE81E050C08C819D81892B15
:1010D00021F40F900FBE80E048C0B11005C0CE01D2
:1010E00001960E944D0DB92C0F900FBE0E94310B3E
:1010F0000FB6F8940F92F801858D8F3F09F4158E85
:10110000F801868D8F3F09F4168E0F900FBEBE0139
:101110006C5F7F4FCE0101960E94580D81111FC058
:101120000FB6F8940F92F801928D0F900FBE838D39
:1011300098130FC06C817D81C7010E94F30CC80118
:101140000E946F070E94F60B81119BCF0E944906F7
:1011500098CFC8010E946F070E94F60B92CFC8017A
:101160000E946F070E94F60B80E00F900F900F9087
:101170000F900F90DF91CF911F910F91FF90EF9003
:10118000DF90CF90BF90AF909F9008959F92AF92C5
:10119000BF92CF92DF92EF92FF920F931F93CF9364
:1011A000DF9300D000D01F92CDB7DEB78C015B017A
:1011B0005D834C83E12C992493946C0181E1C80EEA
:1011C000D11C0FB6F8940F92F801F28CFF20A9F011
:1011D000B501C8010E945507FA94F801F28E808586
:1011E000882339F0C80108960E94050D81110E94DC
:1011F00049060F900FBE81E051C08C819D81892BE3
:1012000021F40F900FBE80E049C0E11005C0CE016F
:1012100001960E944D0DE92C0F900FBE0E94310BDC
:101220000FB6F8940F92F801858D8F3F09F4158E53
:10123000F801868D8F3F09F4168E0F900FBEBE0108
:101240006C5F7F4FCE0101960E94580D81111AC02C
:10125000C8010E940107882379F06C817D81C60155
:101260000E94F30CC8010E946F070E94F60B8111C7
:10127000A8CF0E944906A5CFC8010E946F070E940F
:10128000F60B9FCFC8010E946F070E94F60BC801A2
:101290000E940107882309F494CF80E00F900F90FB
:1012A0000F900F900F90DF91CF911F910F91FF90B2
:1012B000EF90DF90CF90BF90AF909F900895E09116
:1012C0009706F09198068081811107C08FEF9FEFFC
:1012D00090937706809376060895E0919706F091B3
:1012E00098060580F681E02D8081918190937706A4
:1012F00080937606089503E816E00F2EFBEAEF2EA2
:10130000F6E0FF2EF02D80918206882329F10FB69A
:10131000F8940F92D8011596ED91FC911697C6811D
:10132000D781CE0102960E9480058091810681506E
:1013300080938106809182068150809382060F906F
:101340000FBE8F89988D0E94E904CE010E94E904A6
:10135000809182068111DBCFF7018081823098F283
:101360000E944906D0CF0F931F93CF93DF93EC01D8
:1013700000917F06109180068091CF069091D00653
:1013800002960E948005C00FD11FE091CF06F09118
:10139000D006D383C283C017D10768F46091CF060B
:1013A0007091D00680919506909196066E5F7F4F62
:1013B0000E944F0517C06091CF067091D0068091B2
:1013C0009706909198066E5F7F4F0E944F0580911F
:1013D000760690917706C817D90720F4D093770640
:1013E000C0937606DF91CF911F910F9108954F9290
:1013F0005F926F927F928F929F92AF92BF92CF92A5
:10140000DF92EF92FF920F93CF93DF934C016B012A
:101410005A012901CA010E944F043C01892B09F499
:10142000E5C086E290E00E944F04EC01892B59F060
:10143000788E6F8A81E0A81AB108A60CB71CC11477
:10144000D10429F420C0C3010E94E904CFC0D60111
:101450008C91898F8C918823A1F0AE01465E5F4FFD
:10146000F6013196B8E0CB0ED11CCF012191DA0103
:101470002D93AD01DC018C91882319F0EC15FD054D
:10148000A1F718A201C0198E043008F003E00E8BFA
:101490006E01B2E0CB0ED11CC6010E942A05CE011E
:1014A0000C960E942A05D987C88784E090E0801BAB
:1014B00091099D878C87DB8BCA8B84E0FE01B196F6
:1014C000DF011D928A95E9F71DA2A201B401C501B1
:1014D0000E94A70599838883E114F10419F0F701AC
:1014E000D183C0830FB6F8940F92809181068F5FED
:1014F000809381068091CF069091D006892BA9F523
:10150000D093D006C093CF06809181068130E9F553
:101510008BEA96E00E941C0584EB96E00E941C0575
:101520008DEB96E00E941C0586EC96E00E941C055F
:1015300082EA96E00E941C0589E996E00E941C055B
:101540008CE896E00E941C0583E896E00E941C054A
:1015500082EA96E0909398068093970689E996E050
:10156000909396068093950610C080917D06811118
:101570000CC0E091CF06F091D00696898E8989172C
:1015800020F0D093D006C093CF06809178068F5F6D
:10159000809378068E8990917E06981710F4809338
:1015A0007E0690E09C01220F331F220F331F220F73
:1015B000331F820F931FB6018555994F0E942E0548
:1015C0000F900FBE80917D06882361F0E091CF06D9
:1015D000F091D00696898E89981730F40E944906BA
:1015E00081E005C081E003C081E001C08FEFDF91A1
:1015F000CF910F91FF90EF90DF90CF90BF90AF9081
:101600009F908F907F906F905F904F900895EF9292
:10161000FF920F930F2EF4E7EF2EF6E0FF2EF02D42
:1016200000E020E030E045E550E068E870E08BE75E
:1016300099E00E94F709813081F4F8948FEF9FEFD1
:10164000909377068093760681E080937D061092D2
:10165000800610927F060E9413060F91FF90EF9074
:101660000895809173068F5F809373060895CF92DB
:10167000DF92EF92FF920F931F93CF93DF938091AE
:10168000730681119FC0E0907F06F09080068FEF77
:10169000E81AF80AF0928006E0927F06E114F1045D
:1016A000B9F4809197069091980620919506309113
:1016B000960630939806209397069093960680930B
:1016C0009506809179068F5F809379060E945F0965
:1016D0008091760690917706E816F90610F4D12CE1
:1016E00053C0D12CCC24C394E0919706F091980676
:1016F0008081811107C08FEF9FEF909377068093D1
:10170000760642C0E0919706F09198060580F68132
:10171000E02DC681D7818A819B81E816F90628F4DD
:1017200090937706809376062FC08E010E5F1F4F31
:10173000C8010E9480058C899D89892B21F0CE01EA
:101740000C960E9480058E8990917E06981710F461
:1017500080937E0690E09C01220F331F220F331FDF
:10176000220F331F820F931FB8018555994F0E9496
:101770002E05E091CF06F091D0069E8986899817B4
:1017800008F4B2CFDC2CB0CFE091CF06F091D006B8
:10179000868990E0FC01EE0FFF1FEE0FFF1FEE0F9A
:1017A000FF1F8E0F9F1FFC01E555F94F808182308E
:1017B00010F0DD24D39480917A06882369F0DD242B
:1017C000D3940AC080917B0690917C0601969093F9
:1017D0007C0680937B06D12C8D2DDF91CF911F91BC
:1017E0000F91FF90EF90DF90CF900895DF92EF92EE
:1017F000FF920F931F93CF93DF930FB6F8940F923E
:1018000080917306815080937306809173068111D5
:1018100063C080918106811133C061C0D7011596E4
:10182000ED91FC911697C681D781CE010C960E944E
:1018300080058E010E5F1F4FC8010E9480058E89B2
:1018400090917E06981710F480937E0690E09C019C
:10185000220F331F220F331F220F331F820F931FBC
:10186000B8018555994F0E942E05E091CF06F09161
:10187000D0069E898689981768F0D0927A060AC0A9
:10188000C0E0D0E00F2EFCE8EF2EF6E0FF2EF02DAA
:10189000DD24D394F70180818111C0CFCD2B11F0CD
:1018A0000E945F09C0917B06D0917C06209761F071
:1018B00011E00E94370B811110937A062197C9F726
:1018C00010927C0610927B0680917A06882331F074
:1018D0000E94490681E003C080E001C080E00F90D3
:1018E0000FBEDF91CF911F910F91FF90EF90DF908E
:1018F0000895CF93DF93EC01892B51F00E94310BB7
:1019000060E0CE010E94B3090E94F60B811102C073
:101910000E944906DF91CF91089580917306882334
:1019200021F081E080937A06089510927A06209142
:101930007E06822F90E0FC01EE0FFF1FEE0FFF1FCF
:10194000EE0FFF1FE80FF91FE555F94F30813111F8
:1019500011C02150822F90E0FC01EE0FFF1FEE0F0F
:10196000FF1FEE0FFF1FE80FF91FE555F94F3081FC
:10197000332379F3AC01440F551F440F551F440F17
:10198000551F480F591FDA01A555B94F1196ED9112
:10199000FC9112970280F381E02D1296FC93EE9356
:1019A00011974255594FE417F50729F442815381A5
:1019B000FD0152834183FC01EE0FFF1FEE0FFF1F5D
:1019C000EE0FFF1F8E0F9F1FFC01E555F94F0180A1
:1019D000F281E02D868197819093D0068093CF0687
:1019E00020937E060895CF93DF93EB016091CF069D
:1019F0007091D006645F7F4F0E944F0561E0CE0179
:101A00000E94B309DF91CF9108950F931F93CF9355
:101A1000DF93DC011596ED91FC911697C681D78175
:101A20008E01045F1F4FC8010E94800580917306DC
:101A300081111CC00A501109C8010E9480058E89BD
:101A400090917E06981710F480937E0690E09C019A
:101A5000220F331F220F331F220F331F820F931FBA
:101A6000B8018555994F0E942E0505C0B8018CE834
:101A700096E00E942E05E091CF06F091D0069E8957
:101A80008689891720F481E080937A0601C080E07E
:101A9000DF91CF911F910F91089520917906FC015C
:101AA000208320917F063091800632832183089520
:101AB0000FB6F8940F9220917F0630918006DC01DA
:101AC00011964D915C911297E0917906FC91FE1769
:101AD00041F02417350728F0FB011182108281E0C4
:101AE00015C0241B350BDB014D915C912417350784
:101AF00048F4FB01421B530B518340830E944D0D60
:101B000080E004C0FB011182108281E00F900FBEC3
:101B1000089581E080937A060895EE0FFF1F0590E7
:101B2000F491E02D0994FB01DC0102C001900D92BB
:0C1B300041505040D8F70895F894FFCFC2
:101B3C003132334134353642373839432A30234435
:101B4C00DB0553656E6465725F5461736B0052659F
:0E1B5C0063765F5461736B0049444C45000092
:00000001FF
