:100000000C9496000C94A8000C94A8000C94A800E2
:100010000C94A8000C94A8000C94A8000C94A800C0
:100020000C94A8000C94A8000C94A8000C94CB008D
:100030000C94A8000C94A8000C94A8000C94A800A0
:100040000C94A8000C94A8000C94A8000C94A80090
:100050000C94A8006E018701A001B901D101D10162
:10006000D101D101D101D101D101D101D101D10100
:10007000D101D101D101D101D101D101D101D101F0
:10008000D101D101D101D101D101D101D101D101E0
:10009000D101D1016E018701A001B901DE01F70193
:1000A0001002290241024102410241024102410281
:1000B0004102410241024102410241024102410228
:1000C0004102410241024102410241024102410218
:1000D000410241024102410241024102DE01F701B7
:1000E000100229024D02580263026E027802780261
:1000F0007802780278027802780278027802780230
:10010000780278027802780278027802780278021F
:10011000780278027802780278027802780278020F
:10012000780278024D02580263026E0211241FBE4B
:10013000CFE5D8E0DEBFCDBF20E0A0E6B0E001C053
:100140001D92A236B207E1F70E94AA000C94B102F8
:100150000C94000041E060E083E40E94620141E011
:1001600061E083E40E94620141E062E083E40E9476
:10017000620141E060E083E40E94D20141E061E07D
:1001800083E40E94D20141E062E083E40E94D20154
:100190000E948202FFCF1F920F920FB60F9211247E
:1001A0002F933F934F935F936F937F938F939F937F
:1001B000AF93BF93EF93FF93409160005091610024
:1001C0004F5F5F4F50936100409360009A01AFEA28
:1001D000B7E40E94A202281B390B36952795820F9F
:1001E000931F929582958F7089279F70892769E167
:1001F000689F9001699F300D11244217530721F425
:1002000060E083E40E9442024091600050916100EE
:100210009A0136952795ABE7B4E10E94A202969524
:10022000879562E3689F9001699F300D1124421702
:10023000530721F461E083E40E9442024091600090
:10024000509161009A01A5E2B6E00E94A202281B2B
:10025000390B36952795820F931F0024880F991F1D
:10026000001C880F991F001C892F902D6DE7689F37
:100270009001699F300D11244217530721F462E069
:1002800083E40E94420280916000909161008A366E
:10029000984121F4109261001092600086E00E9463
:1002A0007902FF91EF91BF91AF919F918F917F91D3
:1002B0006F915F914F913F912F910F900FBE0F90D3
:1002C0001F90189590E0FC01E154F109E432F1052A
:1002D00008F067C0E65DFF4F0C949C02413059F472
:1002E0002AB381E090E002C0880F991F6A95E2F777
:1002F000822B8ABB08952AB381E090E002C0880F68
:10030000991F6A95E2F7809582238ABB0895413050
:1003100059F427B381E090E002C0880F991F6A95D5
:10032000E2F7822B87BB089527B381E090E002C0FB
:10033000880F991F6A95E2F78095822387BB0895FD
:10034000413059F424B381E090E002C0880F991F36
:100350006A95E2F7822B84BB089524B381E090E094
:1003600002C0880F991F6A95E2F78095822384BBAB
:100370000895413059F421B381E090E002C0880F24
:10038000991F6A95E2F7822B81BB089521B381E022
:1003900090E002C0880F991F6A95E2F7809582234A
:1003A00081BB089590E0FC01E154F109E432F105CC
:1003B00008F067C0E25BFF4F0C949C02413059F497
:1003C0002BB381E090E002C0880F991F6A95E2F795
:1003D000822B8BBB08952BB381E090E002C0880F85
:1003E000991F6A95E2F7809582238BBB089541306F
:1003F00059F428B381E090E002C0880F991F6A95F4
:10040000E2F7822B88BB089528B381E090E002C018
:10041000880F991F6A95E2F78095822388BB08951B
:10042000413059F425B381E090E002C0880F991F54
:100430006A95E2F7822B85BB089525B381E090E0B1
:1004400002C0880F991F6A95E2F78095822385BBC9
:100450000895413059F422B381E090E002C0880F42
:10046000991F6A95E2F7822B82BB089522B381E03F
:1004700090E002C0880F991F6A95E2F78095822369
:1004800082BB089590E0FC01E154F109E432F105EA
:1004900078F5EE58FF4F0C949C022BB381E090E06E
:1004A00002C0880F991F6A95E2F782278BBB0895D7
:1004B00028B381E090E002C0880F991F6A95E2F7A7
:1004C000822788BB089525B381E090E002C0880FA1
:1004D000991F6A95E2F7822785BB089522B381E0D0
:1004E00090E002C0880F991F6A95E2F7822782BBCD
:1004F000089582BF08958FB780688FBF89B78160E4
:1005000089BF0895BB9A13BE83B7877B83BF83B728
:1005100083BF83B78F7C83BF83B7806283BF0E9412
:100520007B0283B7887F83BF83B7846083BF86E005
:1005300082BF8FEF8CBF0895EE0FFF1F0590F491DF
:10054000E02D0994A29FB001B39FC001A39F700D3D
:10055000811D1124911DB29F700D811D1124911DCB
:060560000895F894FFCF9E
:00000001FF
