:100000000C94DE000C94F0000C94F0000C94F000C2
:100010000C943B010C94F0000C94F0000C94F00054
:100020000C94F0000C94F0000C94F0000C94F00090
:100030000C94F0000C94F0000C94F0000C94F00080
:100040000C94F0000C94F0000C94F0000C94F00070
:100050000C94F00084019D01B601CF01E701E70196
:10006000E701E701E701E701E701E701E701E70150
:10007000E701E701E701E701E701E701E701E70140
:10008000E701E701E701E701E701E701E701E70130
:10009000E701E70184019D01B601CF01F4010D02E2
:1000A00026023F02570257025702570257025702D1
:1000B0005702570257025702570257025702570278
:1000C0005702570257025702570257025702570268
:1000D000570257025702570257025702F4010D0206
:1000E00026023F0263026E02790284028E028E02B1
:1000F0008E028E028E028E028E028E028E028E0280
:100100008E028E028E028E028E028E028E028E026F
:100110008E028E028E028E028E028E028E028E025F
:100120008E028E0263026E02790284029A02A1029A
:10013000A802AF02B502B502B502B502B502B5021A
:10014000B502B502B502B502B502B502B502B502F7
:10015000B502B502B502B502B502B502B502B502E7
:10016000B502B502B502B502B502B5029A02A10206
:10017000A802AF02C102C802CF02D602DC02DC0232
:10018000DC02DC02DC02DC02DC02DC02DC02DC027F
:10019000DC02DC02DC02DC02DC02DC02DC02DC026F
:1001A000DC02DC02DC02DC02DC02DC02DC02DC025F
:1001B000DC02DC02C102C802CF02D60211241FBE3B
:1001C000CFE5D8E0DEBFCDBF20E0A0E6B0E001C0C3
:1001D0001D92A236B207E1F70E942A010C94040393
:1001E0000C94000041E060E083E40E94780141E06B
:1001F00061E083E40E94780141E062E083E40E94D0
:10020000780141E063E083E40E94780141E062E02C
:1002100082E40E94780141E061E082E40E9478017A
:1002200041E063E082E40E947801089541E062E0E9
:1002300082E40E94E8010895CF93C82F682F629549
:10024000607F83E40E94B6026C2F83E40E948F02D9
:10025000CF91089541E060E081E40E94780140E0A0
:1002600060E081E40E94E8010E94F2000E94160111
:100270000E94E402FFCF1F920F920FB60F9211243B
:100280002F933F934F935F936F937F938F939F939E
:10029000AF93BF93EF93FF93809160008F5F809344
:1002A00060008D3781F460E081E40E945802809103
:1002B00061008F5F8A3019F08093610002C0109254
:1002C000610010926000809161000E941C01FF910A
:1002D000EF91BF91AF919F918F917F916F915F91BE
:1002E0004F913F912F910F900FBE0F901F90189537
:1002F00090E0FC01E154F109E432F10508F067C037
:10030000E65DFF4F0C94FE02413059F42AB381E0C0
:1003100090E002C0880F991F6A95E2F7822B8ABB92
:1003200008952AB381E090E002C0880F991F6A9572
:10033000E2F7809582238ABB0895413059F427B3B0
:1003400081E090E002C0880F991F6A95E2F7822B46
:1003500087BB089527B381E090E002C0880F991F02
:100360006A95E2F78095822387BB0895413059F45E
:1003700024B381E090E002C0880F991F6A95E2F7EC
:10038000822B84BB089524B381E090E002C0880FE3
:10039000991F6A95E2F78095822384BB08954130C6
:1003A00059F421B381E090E002C0880F991F6A954B
:1003B000E2F7822B81BB089521B381E090E002C077
:1003C000880F991F6A95E2F78095822381BB089573
:1003D00090E0FC01E154F109E432F10508F067C056
:1003E000E25BFF4F0C94FE02413059F42BB381E0E5
:1003F00090E002C0880F991F6A95E2F7822B8BBBB1
:1004000008952BB381E090E002C0880F991F6A9590
:10041000E2F7809582238BBB0895413059F428B3CD
:1004200081E090E002C0880F991F6A95E2F7822B65
:1004300088BB089528B381E090E002C0880F991F1F
:100440006A95E2F78095822388BB0895413059F47C
:1004500025B381E090E002C0880F991F6A95E2F70A
:10046000822B85BB089525B381E090E002C0880F00
:10047000991F6A95E2F78095822385BB08954130E4
:1004800059F422B381E090E002C0880F991F6A9569
:10049000E2F7822B82BB089522B381E090E002C094
:1004A000880F991F6A95E2F78095822382BB089591
:1004B00090E0FC01E154F109E432F10578F5EE58E1
:1004C000FF4F0C94FE022BB381E090E002C0880F36
:1004D000991F6A95E2F782278BBB089528B381E0C4
:1004E00090E002C0880F991F6A95E2F7822788BBC7
:1004F000089525B381E090E002C0880F991F6A95A6
:10050000E2F7822785BB089522B381E090E002C024
:10051000880F991F6A95E2F7822782BB089590E0C1
:10052000FC01E154F109E432F105F8F4EA56FF4F19
:100530000C94FE028BB3807F8BBB6F70682B6BBB00
:10054000089588B3807F88BB6F70682B68BB08955F
:1005500085B3807F85BB6F70682B65BB089582B3C0
:10056000807F82BB6F70682B62BB089590E0FC01B6
:10057000E154F109E432F105F8F4E654FF4F0C942C
:10058000FE028BB38F708BBB607F682B6BBB0895B3
:1005900088B38F7088BB607F682B68BB089585B374
:1005A0008F7085BB607F682B65BB089582B38F70A9
:1005B00082BB607F682B6BBB08958FB780688FBF4D
:1005C00089B7806889BF08958F9A15BC85B5877BE8
:1005D00085BD85B5886085BD85B58F7C85BD85B5B4
:1005E000806185BD0E94DD0285B5887F85BD85B5AA
:1005F000876085BD14BC8DE783BD0895EE0FFF1F96
:0C0600000590F491E02D0994F894FFCFD0
:00000001FF
