:100000000C94DE000C9452020C949D020C94FB00A4
:100010000C94FB000C94FB000C94FB000C94FB0074
:100020000C94FB000C94FB000C94FB000C94FB0064
:100030000C94FB000C94FB000C94FB000C94FB0054
:100040000C94FB000C94FB000C94FB000C94FB0044
:100050000C94FB00E102FA0213032C034403440353
:100060004403440344034403440344034403440358
:100070004403440344034403440344034403440348
:100080004403440344034403440344034403440338
:1000900044034403E102FA0213032C0351036A03ED
:1000A00083039C03B403B403B403B403B403B403E1
:1000B000B403B403B403B403B403B403B403B40388
:1000C000B403B403B403B403B403B403B403B40378
:1000D000B403B403B403B403B403B40351036A0315
:1000E00083039C03C003CA03D403DE03E703E703CF
:1000F000E703E703E703E703E703E703E703E703B0
:10010000E703E703E703E703E703E703E703E7039F
:10011000E703E703E703E703E703E703E703E7038F
:10012000E703E703C003CA03D403DE03F303FA03C0
:10013000010408040E040E040E040E040E040E0442
:100140000E040E040E040E040E040E040E040E041F
:100150000E040E040E040E040E040E040E040E040F
:100160000E040E040E040E040E040E04F303FA0330
:10017000010408041A04210428042F04350435045A
:1001800035043504350435043504350435043504A7
:100190003504350435043504350435043504350497
:1001A0003504350435043504350435043504350487
:1001B000350435041A04210428042F0411241FBE19
:1001C000CFE5D8E0DEBFCDBF10E0A0E6B0E0EEEBBB
:1001D000F8E002C005900D92AE36B107D9F720E0E5
:1001E000AEE6B0E001C01D92AF36B207E1F70E9463
:1001F000C8010C945D040C94000041E060E083E4CD
:100200000E94D50241E061E083E40E94D50241E012
:1002100062E083E40E94D50241E063E083E40E944F
:10022000D50241E062E082E40E94D50241E061E053
:1002300082E40E94D50241E063E082E40E94D5029C
:100240000895CF93C82F682F6295607F83E40E9442
:100250000F046C2F83E40E94E803CF91089541E0DE
:1002600063E082E40E94450383E08A95F1F7000091
:1002700040E063E082E40E9445030895CF93C82FD5
:1002800040E061E082E40E94450340E062E082E4F5
:100290000E9445036C2F81E40E940F040E942F01ED
:1002A0006C2F6295607F81E40E940F040E942F01F1
:1002B00081EE94E00197F1F700C00000CF9108951E
:1002C00061E081E40E94B50341E061E082E40E94C4
:1002D000D50241E062E082E40E94D50241E063E0A1
:1002E00082E40E94D50285EA9EE00197F1F700C002
:1002F000000083E30E943E0182E30E943E0188E207
:100300000E943E018CE00E943E0181E00E943E017D
:1003100086E00E943E01089581E00E943E0108951A
:10032000CF93C82F41E061E082E40E94450340E0A2
:1003300062E082E40E9445036C2F81E40E940F0476
:100340000E942F016C2F6295607F81E40E940F0450
:100350000E942F0181EE94E00197F1F700C00000A8
:10036000CF9108950F931F93CF93FC018081882331
:1003700059F08F01C0E00E949001CF5FF801EC0FAF
:10038000F11D80818111F7CFCF911F910F910895B9
:1003900041E065E084E40E94D50241E066E084E447
:1003A0000E94D50241E067E084E40E94D50240E06B
:1003B00065E084E40E94450341E066E084E40E9435
:1003C000450340E067E084E40E9445030E94600129
:1003D0000E9448040E94FD008FB780688FBF80E6AE
:1003E00090E00E94B2012FEF83EC99E02150804011
:1003F0009040E1F700C000008CE10E943E012FEF29
:1004000083EC99E0215080409040E1F700C000006B
:100410008CE10E943E012FEF83EC99E02150804057
:100420009040E1F700C000008CE10E943E012FEFF8
:1004300083EC99E0215080409040E1F700C000003B
:1004400088E10E943E012FEF83EC99E0215080402B
:100450009040E1F700C0000088E10E943E012FEFCC
:1004600083EC99E0215080409040E1F700C000000B
:1004700088E10E943E010E948C01B1CF41E065E01D
:1004800084E40E9445032FEF81EE94E021508040E8
:100490009040E1F700C0000040E065E084E40E9485
:1004A000450308951F920F920FB60F9211242F93B8
:1004B0003F934F935F936F937F938F939F93AF93EC
:1004C000BF93EF93FF9390916E0081E0890F80932B
:1004D0006E008A3098F4893061F40E943E0241E057
:1004E00067E084E40E94450340E066E084E40E9403
:1004F000450380916E000E9421010EC090936E0012
:100500000E943E0241E067E084E40E94450340E02F
:1005100066E084E40E944503FF91EF91BF91AF91A3
:100520009F918F917F916F915F914F913F912F910B
:100530000F900FBE0F901F9018951F920F920FB63D
:100540000F9211242F933F934F935F936F937F9359
:100550008F939F93AF93BF93EF93FF9380916E0020
:10056000811103C00E943E0205C0815080936E003D
:100570000E94210140E067E084E40E94450341E0DD
:1005800066E084E40E944503FF91EF91BF91AF9133
:100590009F918F917F916F915F914F913F912F919B
:1005A0000F900FBE0F901F90189590E0FC01E15442
:1005B000F109E432F10508F067C0E65DFF4F0C94E5
:1005C0005704413059F42AB381E090E002C0880F0B
:1005D000991F6A95E2F7822B8ABB08952AB381E0BE
:1005E00090E002C0880F991F6A95E2F780958223F8
:1005F0008ABB0895413059F427B381E090E002C0EE
:10060000880F991F6A95E2F7822B87BB089527B35D
:1006100081E090E002C0880F991F6A95E2F780950B
:10062000822387BB0895413059F424B381E090E0E0
:1006300002C0880F991F6A95E2F7822B84BB089548
:1006400024B381E090E002C0880F991F6A95E2F719
:100650008095822384BB0895413059F421B381E011
:1006600090E002C0880F991F6A95E2F7822B81BB48
:10067000089521B381E090E002C0880F991F6A9528
:10068000E2F78095822381BB089590E0FC01E1545C
:10069000F109E432F10508F067C0E25BFF4F0C940A
:1006A0005704413059F42BB381E090E002C0880F29
:1006B000991F6A95E2F7822B8BBB08952BB381E0DB
:1006C00090E002C0880F991F6A95E2F78095822317
:1006D0008BBB0895413059F428B381E090E002C00B
:1006E000880F991F6A95E2F7822B88BB089528B37B
:1006F00081E090E002C0880F991F6A95E2F780952B
:10070000822388BB0895413059F425B381E090E0FD
:1007100002C0880F991F6A95E2F7822B85BB089566
:1007200025B381E090E002C0880F991F6A95E2F737
:100730008095822385BB0895413059F422B381E02E
:1007400090E002C0880F991F6A95E2F7822B82BB66
:10075000089522B381E090E002C0880F991F6A9546
:10076000E2F78095822382BB089590E0FC01E1547A
:10077000F109E432F10558F5EE58FF4F0C94570497
:10078000613021F48AB3806F8ABB08958AB38F7079
:100790008ABB0895613021F487B3806F87BB0895C9
:1007A00087B38F7087BB0895613021F484B3806F65
:1007B00084BB089584B38F7084BB0895613021F4A5
:1007C00081B3806F81BB089581B38F7081BB089521
:1007D00090E0FC01E154F109E432F105F8F4EA5645
:1007E000FF4F0C9457048BB3807F8BBB6F70682BCB
:1007F0006BBB089588B3807F88BB6F70682B68BB24
:10080000089585B3807F85BB6F70682B65BB0895A5
:1008100082B3807F82BB6F70682B62BB089590E0CB
:10082000FC01E154F109E432F105F8F4E654FF4F1C
:100830000C9457048BB38F708BBB607F682B6BBBA2
:10084000089588B38F7088BB607F682B68BB08955C
:1008500085B38F7085BB607F682B65BB089582B3BD
:100860008F7082BB607F682B6BBB0895813041F035
:1008700018F0823049F008958BB780648BBF0895DB
:100880008BB780688BBF08958BB780628BBF08954C
:100890008A9885B7826085BF80E00E9436048B9875
:1008A00085B7826085BF81E00E9436040895EE0F0F
:0E08B000FF1F0590F491E02D0994F894FFCFFE
:0E08BE004761726167652053797374656D0040
:00000001FF
